:020000020000FC
:040000000C940E024C
:040028000C94220210
:10020000DEB7CDB7BEBFADBF0F911FBE6F915F917F
:0C0210004F913F912F911F910F91089585
:10040000BEB7ADB7DEBFCDBF0F911FBE6F915F917D
:100410004F913F912F911F910F91089548E04EBF4A
:100420004FE54DBF70E080E0B8E0AFE5D0E8C7E44D
:10043000F8E0EFE242E049BF78944DE74CBF4BE073
:1004400043BFFFCF4F934DE74F910F931F932F93D0
:100450003F934F935F936F930FB70F937F938F9358
:10046000189582E070E0000000000000000000002D
:100470000000000000000C94310203E309B900E120
:100480000AB906E800BD0FEF04BB81E070E05F9B96
:10049000FECF5F9A0CB10895D62FC52F1CB11A93C9
:0204A000F6CF95
:00000001FF
